{
  "contractName": "ArbitrageBot",
  "abi": [
    {
      "inputs": [],
      "stateMutability": "nonpayable",
      "type": "constructor"
    },
    {
      "anonymous": false,
      "inputs": [
        {
          "indexed": true,
          "internalType": "address",
          "name": "previousOwner",
          "type": "address"
        },
        {
          "indexed": true,
          "internalType": "address",
          "name": "newOwner",
          "type": "address"
        }
      ],
      "name": "OwnershipTransferred",
      "type": "event"
    },
    {
      "stateMutability": "payable",
      "type": "fallback",
      "payable": true
    },
    {
      "inputs": [],
      "name": "owner",
      "outputs": [
        {
          "internalType": "address",
          "name": "",
          "type": "address"
        }
      ],
      "stateMutability": "view",
      "type": "function",
      "constant": true
    },
    {
      "inputs": [],
      "name": "renounceOwnership",
      "outputs": [],
      "stateMutability": "nonpayable",
      "type": "function"
    },
    {
      "inputs": [
        {
          "internalType": "address",
          "name": "newOwner",
          "type": "address"
        }
      ],
      "name": "transferOwnership",
      "outputs": [],
      "stateMutability": "nonpayable",
      "type": "function"
    },
    {
      "inputs": [],
      "name": "waitTime",
      "outputs": [
        {
          "internalType": "uint256",
          "name": "",
          "type": "uint256"
        }
      ],
      "stateMutability": "view",
      "type": "function",
      "constant": true
    },
    {
      "stateMutability": "payable",
      "type": "receive",
      "payable": true
    },
    {
      "inputs": [
        {
          "internalType": "uint256",
          "name": "_waitTime",
          "type": "uint256"
        }
      ],
      "name": "setWaitTime",
      "outputs": [],
      "stateMutability": "nonpayable",
      "type": "function"
    },
    {
      "inputs": [],
      "name": "getWaitTime",
      "outputs": [
        {
          "internalType": "uint256",
          "name": "",
          "type": "uint256"
        }
      ],
      "stateMutability": "view",
      "type": "function",
      "constant": true
    },
    {
      "inputs": [
        {
          "internalType": "address",
          "name": "router",
          "type": "address"
        },
        {
          "internalType": "address",
          "name": "_tokenIn",
          "type": "address"
        },
        {
          "internalType": "address",
          "name": "_tokenOut",
          "type": "address"
        },
        {
          "internalType": "uint256",
          "name": "_amount",
          "type": "uint256"
        }
      ],
      "name": "getAmountOutMin",
      "outputs": [
        {
          "internalType": "uint256",
          "name": "",
          "type": "uint256"
        }
      ],
      "stateMutability": "view",
      "type": "function",
      "constant": true
    },
    {
      "inputs": [
        {
          "internalType": "address",
          "name": "_router1",
          "type": "address"
        },
        {
          "internalType": "address",
          "name": "_router2",
          "type": "address"
        },
        {
          "internalType": "address",
          "name": "_token1",
          "type": "address"
        },
        {
          "internalType": "address",
          "name": "_token2",
          "type": "address"
        },
        {
          "internalType": "uint256",
          "name": "_amount",
          "type": "uint256"
        }
      ],
      "name": "estimateDualDexTrade",
      "outputs": [
        {
          "internalType": "uint256",
          "name": "",
          "type": "uint256"
        }
      ],
      "stateMutability": "view",
      "type": "function",
      "constant": true
    },
    {
      "inputs": [
        {
          "internalType": "address",
          "name": "_router1",
          "type": "address"
        },
        {
          "internalType": "address",
          "name": "_router2",
          "type": "address"
        },
        {
          "internalType": "address",
          "name": "_token1",
          "type": "address"
        },
        {
          "internalType": "address",
          "name": "_token2",
          "type": "address"
        },
        {
          "internalType": "uint256",
          "name": "_amount",
          "type": "uint256"
        }
      ],
      "name": "dualDexTrade",
      "outputs": [],
      "stateMutability": "nonpayable",
      "type": "function"
    },
    {
      "inputs": [
        {
          "internalType": "address",
          "name": "_router1",
          "type": "address"
        },
        {
          "internalType": "address",
          "name": "_router2",
          "type": "address"
        },
        {
          "internalType": "address",
          "name": "_router3",
          "type": "address"
        },
        {
          "internalType": "address",
          "name": "_token1",
          "type": "address"
        },
        {
          "internalType": "address",
          "name": "_token2",
          "type": "address"
        },
        {
          "internalType": "address",
          "name": "_token3",
          "type": "address"
        },
        {
          "internalType": "uint256",
          "name": "_amount",
          "type": "uint256"
        }
      ],
      "name": "estimateTriDexTrade",
      "outputs": [
        {
          "internalType": "uint256",
          "name": "",
          "type": "uint256"
        }
      ],
      "stateMutability": "view",
      "type": "function",
      "constant": true
    },
    {
      "inputs": [
        {
          "internalType": "address",
          "name": "_tokenContractAddress",
          "type": "address"
        }
      ],
      "name": "getBalance",
      "outputs": [
        {
          "internalType": "uint256",
          "name": "",
          "type": "uint256"
        }
      ],
      "stateMutability": "view",
      "type": "function",
      "constant": true
    },
    {
      "inputs": [],
      "name": "recoverEth",
      "outputs": [],
      "stateMutability": "nonpayable",
      "type": "function"
    },
    {
      "inputs": [
        {
          "internalType": "address",
          "name": "tokenAddress",
          "type": "address"
        }
      ],
      "name": "recoverTokens",
      "outputs": [],
      "stateMutability": "nonpayable",
      "type": "function"
    }
  ],
  "bytecode": "0x608060405234801561001057600080fd5b5061001a33610025565b61012c600155610075565b600080546001600160a01b038381166001600160a01b0319831681178455604051919092169283917f8be0079c531659141344cd1fd0a4f28419497f9722a3daafe3b4186f6b6457e09190a35050565b610eeb806100846000396000f3fe6080604052600436106100bd5760003560e01c8063715018a611610079578063ccca123b11610056578063ccca123b146101dc578063df351aaf146101f2578063f2fde38b14610212578063f8b2cb4f1461023257005b8063715018a61461018a5780638da5cb5b1461019f578063bcdb446b146101c757005b806303c71800146100c6578063068e7ca1146100ea57806316114acd1461010a5780631aa513181461012a57806326a215ec1461014a57806343cf6f241461016a57005b366100c457005b005b3480156100d257600080fd5b506001545b6040519081526020015b60405180910390f35b3480156100f657600080fd5b506100d7610105366004610b27565b610252565b34801561011657600080fd5b506100c4610125366004610b83565b61027d565b34801561013657600080fd5b506100c4610145366004610b27565b610398565b34801561015657600080fd5b506100d7610165366004610b9e565b6105f8565b34801561017657600080fd5b506100d7610185366004610c1d565b610636565b34801561019657600080fd5b506100c461075d565b3480156101ab57600080fd5b506000546040516001600160a01b0390911681526020016100e1565b3480156101d357600080fd5b506100c4610793565b3480156101e857600080fd5b506100d760015481565b3480156101fe57600080fd5b506100c461020d366004610c68565b6107ec565b34801561021e57600080fd5b506100c461022d366004610b83565b61081b565b34801561023e57600080fd5b506100d761024d366004610b83565b6108b3565b60008061026187868686610636565b9050600061027187868885610636565b98975050505050505050565b6000546001600160a01b031633146102b05760405162461bcd60e51b81526004016102a790610c81565b60405180910390fd5b6040516370a0823160e01b815230600482015281906001600160a01b0382169063a9059cbb90339083906370a0823190602401602060405180830381865afa158015610300573d6000803e3d6000fd5b505050506040513d601f19601f820116820180604052508101906103249190610cb6565b6040516001600160e01b031960e085901b1681526001600160a01b03909216600483015260248201526044016020604051808303816000875af115801561036f573d6000803e3d6000fd5b505050506040513d601f19601f820116820180604052508101906103939190610ccf565b505050565b6000546001600160a01b031633146103c25760405162461bcd60e51b81526004016102a790610c81565b6040516370a0823160e01b81523060048201526000906001600160a01b038516906370a0823190602401602060405180830381865afa158015610409573d6000803e3d6000fd5b505050506040513d601f19601f8201168201806040525081019061042d9190610cb6565b6040516370a0823160e01b81523060048201529091506000906001600160a01b038516906370a0823190602401602060405180830381865afa158015610477573d6000803e3d6000fd5b505050506040513d601f19601f8201168201806040525081019061049b9190610cb6565b90506104a987868686610927565b6040516370a0823160e01b81523060048201526000906001600160a01b038616906370a0823190602401602060405180830381865afa1580156104f0573d6000803e3d6000fd5b505050506040513d601f19601f820116820180604052508101906105149190610cb6565b905060006105228383610d07565b905061053088878984610927565b6040516370a0823160e01b81523060048201526000906001600160a01b038916906370a0823190602401602060405180830381865afa158015610577573d6000803e3d6000fd5b505050506040513d601f19601f8201168201806040525081019061059b9190610cb6565b90508481116105ec5760405162461bcd60e51b815260206004820152601e60248201527f54726164652052657665727465642c204e6f2050726f666974204d616465000060448201526064016102a7565b50505050505050505050565b60008061060789878786610636565b9050600061061789878785610636565b9050600061062789878a85610636565b9b9a5050505050505050505050565b6040805160028082526060808301845260009390929190602083019080368337019050509050848160008151811061067057610670610d34565b60200260200101906001600160a01b031690816001600160a01b03168152505083816001815181106106a4576106a4610d34565b6001600160a01b03928316602091820292909201015260405163d06ca61f60e01b815260009188169063d06ca61f906106e39087908690600401610d8e565b600060405180830381865afa158015610700573d6000803e3d6000fd5b505050506040513d6000823e601f3d908101601f191682016040526107289190810190610daf565b905080600183516107399190610d07565b8151811061074957610749610d34565b602002602001015192505050949350505050565b6000546001600160a01b031633146107875760405162461bcd60e51b81526004016102a790610c81565b6107916000610abb565b565b6000546001600160a01b031633146107bd5760405162461bcd60e51b81526004016102a790610c81565b60405133904780156108fc02916000818181858888f193505050501580156107e9573d6000803e3d6000fd5b50565b6000546001600160a01b031633146108165760405162461bcd60e51b81526004016102a790610c81565b600155565b6000546001600160a01b031633146108455760405162461bcd60e51b81526004016102a790610c81565b6001600160a01b0381166108aa5760405162461bcd60e51b815260206004820152602660248201527f4f776e61626c653a206e6577206f776e657220697320746865207a65726f206160448201526564647265737360d01b60648201526084016102a7565b6107e981610abb565b6040516370a0823160e01b815230600482015260009081906001600160a01b038416906370a0823190602401602060405180830381865afa1580156108fc573d6000803e3d6000fd5b505050506040513d601f19601f820116820180604052508101906109209190610cb6565b9392505050565b60405163095ea7b360e01b81526001600160a01b0385811660048301526024820183905284169063095ea7b3906044016020604051808303816000875af1158015610976573d6000803e3d6000fd5b505050506040513d601f19601f8201168201806040525081019061099a9190610ccf565b50604080516002808252606080830184529260208301908036833701905050905083816000815181106109cf576109cf610d34565b60200260200101906001600160a01b031690816001600160a01b0316815250508281600181518110610a0357610a03610d34565b60200260200101906001600160a01b031690816001600160a01b031681525050600060015442610a339190610e61565b6040516338ed173960e01b81529091506001600160a01b038716906338ed173990610a6b908690600190879030908890600401610e79565b6000604051808303816000875af1158015610a8a573d6000803e3d6000fd5b505050506040513d6000823e601f3d908101601f19168201604052610ab29190810190610daf565b50505050505050565b600080546001600160a01b038381166001600160a01b0319831681178455604051919092169283917f8be0079c531659141344cd1fd0a4f28419497f9722a3daafe3b4186f6b6457e09190a35050565b80356001600160a01b0381168114610b2257600080fd5b919050565b600080600080600060a08688031215610b3f57600080fd5b610b4886610b0b565b9450610b5660208701610b0b565b9350610b6460408701610b0b565b9250610b7260608701610b0b565b949793965091946080013592915050565b600060208284031215610b9557600080fd5b61092082610b0b565b600080600080600080600060e0888a031215610bb957600080fd5b610bc288610b0b565b9650610bd060208901610b0b565b9550610bde60408901610b0b565b9450610bec60608901610b0b565b9350610bfa60808901610b0b565b9250610c0860a08901610b0b565b915060c0880135905092959891949750929550565b60008060008060808587031215610c3357600080fd5b610c3c85610b0b565b9350610c4a60208601610b0b565b9250610c5860408601610b0b565b9396929550929360600135925050565b600060208284031215610c7a57600080fd5b5035919050565b6020808252818101527f4f776e61626c653a2063616c6c6572206973206e6f7420746865206f776e6572604082015260600190565b600060208284031215610cc857600080fd5b5051919050565b600060208284031215610ce157600080fd5b8151801515811461092057600080fd5b634e487b7160e01b600052601160045260246000fd5b600082821015610d1957610d19610cf1565b500390565b634e487b7160e01b600052604160045260246000fd5b634e487b7160e01b600052603260045260246000fd5b600081518084526020808501945080840160005b83811015610d835781516001600160a01b031687529582019590820190600101610d5e565b509495945050505050565b828152604060208201526000610da76040830184610d4a565b949350505050565b60006020808385031215610dc257600080fd5b825167ffffffffffffffff80821115610dda57600080fd5b818501915085601f830112610dee57600080fd5b815181811115610e0057610e00610d1e565b8060051b604051601f19603f83011681018181108582111715610e2557610e25610d1e565b604052918252848201925083810185019188831115610e4357600080fd5b938501935b8285101561027157845184529385019392850192610e48565b60008219821115610e7457610e74610cf1565b500190565b85815284602082015260a060408201526000610e9860a0830186610d4a565b6001600160a01b039490941660608301525060800152939250505056fea2646970667358221220a2c46ddf7545acde9ba0763dc3347ff66e00547071ee1855f56f126c9b8d42d264736f6c634300080b0033",
  "immutableReferences": {},
  "source": "//SPDX-License-Identifier: Unlicense\r\npragma solidity ^0.8.11;\r\n\r\nimport \"@openzeppelin/contracts/access/Ownable.sol\";\r\n\r\ninterface IERC20 {\r\n\tfunction totalSupply() external view returns (uint);\r\n\tfunction balanceOf(address account) external view returns (uint);\r\n\tfunction transfer(address recipient, uint amount) external returns (bool);\r\n\tfunction allowance(address owner, address spender) external view returns (uint);\r\n\tfunction approve(address spender, uint amount) external returns (bool);\r\n\tfunction transferFrom(address sender, address recipient, uint amount) external returns (bool);\r\n\tevent Transfer(address indexed from, address indexed to, uint value);\r\n\tevent Approval(address indexed owner, address indexed spender, uint value);\r\n}\r\n\r\ninterface IUniswapV2Router {\r\n  function getAmountsOut(uint256 amountIn, address[] memory path) external view returns (uint256[] memory amounts);\r\n  function swapExactTokensForTokens(uint256 amountIn, uint256 amountOutMin, address[] calldata path, address to, uint256 deadline) external returns (uint256[] memory amounts);\r\n}\r\n\r\ninterface IUniswapV2Pair {\r\n  function token0() external view returns (address);\r\n  function token1() external view returns (address);\r\n  function swap(uint256 amount0Out,\tuint256 amount1Out,\taddress to,\tbytes calldata data) external;\r\n}\r\n\r\ncontract ArbitrageBot is Ownable {\r\n\tuint256 public waitTime;\r\n\r\n\tconstructor() {\r\n\t\twaitTime = 300;\r\n\t}\r\n\r\n\tfunction setWaitTime(uint256 _waitTime) public onlyOwner {\r\n\t\twaitTime = _waitTime;\r\n\t}\r\n\r\n\tfunction getWaitTime() public view returns (uint256) {\r\n\t\treturn waitTime;\r\n\t}\r\n\r\n\tfunction swap(address router, address _tokenIn, address _tokenOut, uint256 _amount) private {\r\n\t\tIERC20(_tokenIn).approve(router, _amount);\r\n\t\taddress[] memory path;\r\n\t\tpath = new address[](2);\r\n\t\tpath[0] = _tokenIn;\r\n\t\tpath[1] = _tokenOut;\r\n\t\tuint deadline = block.timestamp + waitTime;\r\n\t\tIUniswapV2Router(router).swapExactTokensForTokens(_amount, 1, path, address(this), deadline);\r\n\t}\r\n\r\n\t function getAmountOutMin(address router, address _tokenIn, address _tokenOut, uint256 _amount) public view returns (uint256) {\r\n\t\taddress[] memory path;\r\n\t\tpath = new address[](2);\r\n\t\tpath[0] = _tokenIn;\r\n\t\tpath[1] = _tokenOut;\r\n\t\tuint256[] memory amountOutMins = IUniswapV2Router(router).getAmountsOut(_amount, path);\r\n\t\treturn amountOutMins[path.length -1];\r\n\t}\r\n\r\n  function estimateDualDexTrade(address _router1, address _router2, address _token1, address _token2, uint256 _amount) external view returns (uint256) {\r\n\t\tuint256 amtBack1 = getAmountOutMin(_router1, _token1, _token2, _amount);\r\n\t\tuint256 amtBack2 = getAmountOutMin(_router2, _token2, _token1, amtBack1);\r\n\t\treturn amtBack2;\r\n\t}\r\n\r\n  function dualDexTrade(address _router1, address _router2, address _token1, address _token2, uint256 _amount) external onlyOwner {\r\n    uint startBalance = IERC20(_token1).balanceOf(address(this));\r\n    uint token2InitialBalance = IERC20(_token2).balanceOf(address(this));\r\n    swap(_router1,_token1, _token2,_amount);\r\n    uint token2Balance = IERC20(_token2).balanceOf(address(this));\r\n    uint tradeableAmount = token2Balance - token2InitialBalance;\r\n    swap(_router2,_token2, _token1,tradeableAmount);\r\n    uint endBalance = IERC20(_token1).balanceOf(address(this));\r\n    require(endBalance > startBalance, \"Trade Reverted, No Profit Made\");\r\n  }\r\n\r\n\tfunction estimateTriDexTrade(address _router1, address _router2, address _router3, address _token1, address _token2, address _token3, uint256 _amount) external view returns (uint256) {\r\n\t\tuint amtBack1 = getAmountOutMin(_router1, _token1, _token2, _amount);\r\n\t\tuint amtBack2 = getAmountOutMin(_router2, _token2, _token3, amtBack1);\r\n\t\tuint amtBack3 = getAmountOutMin(_router3, _token3, _token1, amtBack2);\r\n\t\treturn amtBack3;\r\n\t}\r\n\r\n\tfunction getBalance(address _tokenContractAddress) external view  returns (uint256) {\r\n\t\tuint balance = IERC20(_tokenContractAddress).balanceOf(address(this));\r\n\t\treturn balance;\r\n\t}\r\n\r\n\tfunction recoverEth() external onlyOwner {\r\n\t\tpayable(msg.sender).transfer(address(this).balance);\r\n\t}\r\n\r\n\tfunction recoverTokens(address tokenAddress) external onlyOwner {\r\n\t\tIERC20 token = IERC20(tokenAddress);\r\n\t\ttoken.transfer(msg.sender, token.balanceOf(address(this)));\r\n\t}\r\n\r\n//without this function you will not be able to transfer BNB to BSC smart contract\r\n\tfallback() external payable {}\r\n\treceive() external payable {}\r\n}\r\n",
  "sourcePath": "/Users/Frost/Work/Atom/my_dex_arbitrage_bot/contracts/ArbitrageBot.sol",
  "compiler": {
    "name": "solc",
    "version": "0.8.11+commit.d7f03943.Emscripten.clang"
  },
  "schemaVersion": "3.4.7",
  "updatedAt": "2022-05-29T18:33:40.811Z",
  "networkType": "ethereum",
  "devdoc": {
    "kind": "dev",
    "methods": {
      "owner()": {
        "details": "Returns the address of the current owner."
      },
      "renounceOwnership()": {
        "details": "Leaves the contract without owner. It will not be possible to call `onlyOwner` functions anymore. Can only be called by the current owner. NOTE: Renouncing ownership will leave the contract without an owner, thereby removing any functionality that is only available to the owner."
      },
      "transferOwnership(address)": {
        "details": "Transfers ownership of the contract to a new account (`newOwner`). Can only be called by the current owner."
      }
    },
    "version": 1
  },
  "userdoc": {
    "kind": "user",
    "methods": {},
    "version": 1
  }
}